:020000040800F2
:10000000C006002029020008190F0008BD0D0008D5
:10001000150F0008D5030008D110000800000000EB
:10002000000000000000000000000000210F000898
:10003000D9030008000000001D0F0008250F00086C
:10004000430200084302000843020008430200087C
:10005000430200084302000843020008430200086C
:10006000430200084302000843020008430200085C
:10007000430200084302000843020008430200084C
:10008000430200084302000843020008430200083C
:10009000430200084302000843020008430200082C
:1000A000430200084302000843020008430200081C
:1000B000430200084302000843020008430200080C
:1000C00043020008430200084302000843020008FC
:1000D00043020008430200084302000843020008EC
:1000E00043020008430200084302000843020008DC
:1000F00043020008430200084302000843020008CC
:1001000043020008430200084302000843020008BB
:1001100043020008430200084302000843020008AB
:10012000430200084302000843020008430200089B
:10013000430200084302000843020008430200088B
:10014000430200084302000843020008430200087B
:10015000430200084302000843020008430200086B
:10016000430200084302000843020008430200085B
:100170004302000843020008430200080000000098
:10018000430200084302000800F002F800F03CF8C7
:100190000AA090E8000C82448344AAF10107DA45E2
:1001A00001D100F031F8AFF2090EBAE80F0013F0F8
:1001B000010F18BFFB1A43F0010318473C1500005C
:1001C0005C150000103A24BF78C878C1FAD85207ED
:1001D00024BF30C830C144BF04680C6070470000C1
:1001E0000023002400250026103A28BF78C1FBD840
:1001F000520728BF30C148BF0B6070471FB501F0E0
:1002000059FA1FBD10B510BD00F0A9F81146FFF74F
:10021000F5FF01F0F5F800F0C7F803B4FFF7F2FFBF
:1002200003BC00F0CFF800000948804709480047A8
:10023000FEE7FEE7FEE7FEE7FEE7FEE7FEE7FEE796
:10024000FEE7FEE704480549054A064B70470000F3
:10025000D90F000889010008C0000020C006002056
:10026000C0020020C002002053EA020C00F06980A6
:100270002DE9F04B4FF00006002B1FBFB3FA83F5BA
:1002800003FA05F424FA05F65E4012BF1643B2FAEB
:1002900082F502FA05F4C5F120051EBF22FA05FC1D
:1002A00044EA0C04203556EA044C4FEA144418BFC3
:1002B000641C4FF000084FF00009904271EB030CF2
:1002C00039D3002919BFB1FA81F701FA07F6B0FA5C
:1002D00080F700FA07F6C7F120071EBF20FA07FCD7
:1002E00046EA0C062037B6FBF4FCA7EB0507103FE7
:1002F00007F01F0BCBF120062CFA06F60CFA0BFBCD
:1003000044BFB3460026202FA4BF5E464FF0000B2B
:100310005BEA060C08BF4FF0010B19EB0B0948EB29
:100320000608ABFB027C06FB02CC0BFB03CCC01B1C
:1003300071EB0C01C1E70B46024641464846BDE859
:10034000F08B13B5084318BF4FF0FF300146AFF3F1
:100350000080BDE81C407047704770477047754685
:1003600000F02CF8AE4605006946534620F0070021
:10037000854618B020B5FFF765FFBDE820404FF077
:1003800000064FF000074FF000084FF0000BAC469E
:10039000ACE8C009ACE8C009ACE8C009ACE8C009E9
:1003A00021F007018D46704710B50446AFF3008079
:1003B0002046BDE81040FFF730BF000000487047FE
:1003C0001800002001491820ABBEFEE726000200FD
:1003D00070470000FEE7000070470000EFF3108058
:1003E00072B600BFFEE70000B0B5044600F0F4F8B6
:1003F000054640F20000C2F200000078611C18BF00
:10040000044400BF00F0E8F8401BA042FAD3B0BD9E
:100410002DE9F04F82B000F13E4241F6004502F175
:10042000FF77C4F2020508224FEAB726A84208BFA8
:100430000722072E38BF4FEAB7224FF0010E0024E3
:1004400000274FF00008009208E000BF023708F1D3
:100450000108202F04F1040400F0B4800E680EFAA5
:1004600008F916EA090FF1D0D1F804A00AF0030B3D
:10047000ABF10106012E19D80322866802FA07FEA5
:10048000CA6826EA0E06BA40324382604268CAF35E
:10049000001522EA090205FA08F54FEA480C6FEA4E
:1004A0000E064FF0010E2A4342600BE00322BA40D1
:1004B000D643BBF1030FBC4604D1BC464FF0030B3F
:1004C00024E000BFC2688D68324005FA0CF52A436B
:1004D000BBF1020FC26019D16FF0030202EA5802A9
:1004E000024404F01C030F25D2F820E005FA03FAB9
:1004F0000D692EEA0A0E05FA03F343EA0E031362AE
:10050000D1F804A04FF0010E0AF0030B02680BFAB9
:100510000CF332401A431AF4403F026096D0002296
:1005200043F644030192C4F202031A6843F6004CF6
:1005300042F480421A601A68C4F2010C02F480424C
:100540000192019A28F003024FF6084A6244CFF65E
:10055000FF7A52F80A3004F00C060F25B540AB4381
:10056000009D05FA06F6334342F80A30DCF8002015
:100570004B6842EA0906DD0358BF22EA0906CCF8B7
:100580000060DCF804209D0342EA090658BF22EA15
:100590000906CCF80460DCF80820DD0242EA09060E
:1005A00043F60C4558BF22EA0906CCF80860C4F2AD
:1005B00001052A689B0242EA090658BF22EA090699
:1005C0002E6043E702B0BDE8F08F0000002A08BFAC
:1005D000090481617047000040F2BC00C2F20000D3
:1005E0000068704740F2000040F2BC01C2F2000017
:1005F000C2F2000100780A681044086070470000E9
:1006000080B543F60040C4F20200016841F4007175
:100610000160016841F480610160016841F480710A
:100620000160032000F074F80F2000F005F800F0DE
:1006300027F8002080BD000070B540F20006C2F22D
:10064000000640F210013278C2F200014FF47A73D2
:100650000968B3FBF2F20446B1FBF2F1084600F080
:1006600031FB0F2C4FF0010508D838B94FF0FF309F
:1006700021460022002500F01FF87460284670BD56
:1006800082B0002043F640010190C4F202014A68A2
:1006900042F480424A604A6802F480420192019A20
:1006A0000090086840F080500860086800F08050B2
:1006B0000090009802B0704710B54EF60C5CCEF278
:1006C000000CDCF80030C3F3022E8EF00704042C7B
:1006D00028BF0424BEF103034FF0FF3E0EFA04F4DA
:1006E00038BF0023A14399400EFA03F39A43114304
:1006F00000F00F02043A624409010C3200F1604339
:10070000B0F1FF3FC8BF03F56442117010BD000097
:100710004EF60C51CEF200010A684FF6FF031A4064
:1007200060F30A2242F0806040F0FD70086070477C
:100730002DE9F041002800F08B8043F60808C4F250
:1007400002080446D8F8F8030D4600F00700884276
:1007500007D288F8F853D8F8F80300F00700A84249
:1007600076D12068810717D5410705D5D8F8001044
:1007700041F4E051C8F80010010705D5D8F8001081
:1007800041F46041C8F80010D8F80010A26821F0C8
:10079000F0011143C8F80010C0073FD1D8F8F803A2
:1007A00000F00700A84207D988F8F853D8F8F803F2
:1007B00000F00700A8424BD12068410707D5D8F8C0
:1007C0000010E26821F4E0511143C8F8001000075E
:1007D00008D5D8F80000216920F4604040EAC10043
:1007E000C8F8000000F07CF8D8F8001041F2E06290
:1007F000C1F30311C0F60002515C40F2100220FA6E
:1008000001F140F20400C2F200000068C2F20002EE
:100810001160FFF711FF0020BDE8F0816068811EC4
:10082000022907D258F8081C89015CBF0120BDE8E5
:10083000F08111E0012807D158F8081C89035CBF3A
:100840000120BDE8F08107E058F8081C890703D4AF
:100850000120BDE8F08100BFD8F8001021F00301AD
:100860000843C8F80000FFF7B7FE064641F2883794
:10087000D8F80000616800F00C00B0EB810F8DD05B
:10088000FFF7AAFE801BB842F2D90320BDE8F08131
:1008900040F2100043F60801C2F20000C4F2020167
:1008A0000068096841F2F062C1F38221C0F60002DB
:1008B000515CC8407047000040F2100043F6080148
:1008C000C2F20000C4F202010068096841F2F0625D
:1008D000C1F34231C0F60002515CC84070470000CD
:1008E00010B543F60404C4F20204606800F00C0181
:1008F00042F200400829C0F2F40007D0042918BFD2
:1009000010BD41F20020C0F27A0010BD216801F054
:100910003F02216823684902C3F3881106D4A1FB72
:1009200000010023FFF7A0FC07E000BF41F2002018
:10093000C0F27A004843B0FBF2F021680222C1F312
:10094000014102EB4101B0FBF1F010BD2DE9F04196
:1009500082B000286AD00446007843F60006C0073B
:10096000C4F202060BD0B06800F00C00042840F07E
:10097000A1803068800302D56068002856D02078B6
:1009800080071AD5B06810F00C0F09D0B06800F0DD
:100990000C00082840F0A8807068400200F1A48094
:1009A0003068800702D5E06801283FD130682169AE
:1009B00020F0F80040EAC10030602078000739D408
:1009C000207840074ED4A5695DB3B06800F00C00F4
:1009D000082840F0BD80012D28D07068E16900F43E
:1009E00080028A4222D1216A00F03F028A421DD150
:1009F00047F6C071626A0140B1EB821F16D1A26A4C
:100A00000023CFF6FF7303EBC23200F440316FF3E3
:100A10000F0291420AD1E16A00F07060B0EB016F01
:100A200004D1002002B0BDE8F08100BF012002B077
:100A3000BDE8F0816069002840F20000C4F2472060
:100A400076D00121C0F8801EFFF7C6FD054600BF25
:100A5000706F8007B4D4FFF7BFFD401B0228F7D9A1
:100A6000DDE000BF306C10F080580AD1002001900A
:100A7000306C40F080503064306C00F08050019059
:100A8000019847F20007C4F200073868C00541D456
:100A9000386840F480703860FFF79EFD054600BF5F
:100AA0003868C00536D4FFF797FD401B0228F7D9F8
:100AB000B5E000BFB06800F00C00082803D17068F2
:100AC00040023FF556AF6068B0F5803F07D0B0F503
:100AD000A02F40F08D80306840F480203060306876
:100AE00040F4803030608DE0E068002852D0002073
:100AF000C4F2472001210160FFF76EFD054600BFEB
:100B0000306880073FF552AFFFF766FD401B0228B3
:100B1000F6D984E0A068012805D005284ED1306FB1
:100B200040F004003067306F40F0010030674FE064
:100B30000021C0F8801EFFF74FFD0546706F80074B
:100B40007FF53EAFFFF748FD401B0228F6D966E06F
:100B50000027C4F2472700203866FFF73DFD022D2D
:100B600005460BD1306880015ED5FFF735FD401B8F
:100B700002284FF00300F5D954E700BF3068800128
:100B80007FF54FAFFFF728FD401B02284FF0030011
:100B9000F4D947E70020C4F2472000210160FFF7A5
:100BA0001BFD0546306880077FF507AFFFF714FD92
:100BB000401B02284FF00300F4D933E7316F0028BF
:100BC00021F001013167316F21F0040131674DD00F
:100BD000FFF702FD054641F2883700BF306F8007FE
:100BE00056D4FFF7F9FC401BB842F7D917E000BF15
:100BF0003168002821F480313160316821F480218E
:100C000031604FD0FFF7E8FC054600BF3068800335
:100C10003FF5B5AEFFF7E0FC401B6428F6D9032092
:100C200002B0BDE8F08100BF04F11C052FCD0843E0
:100C30000021CFF6FF7140EA821001EBC3316FF360
:100C40000F0140EA05600843706001203866FFF735
:100C5000C3FC0446306880013FF5E3AEFFF7BCFCFF
:100C6000001B02284FF00300F4D9DBE6FFF7B4FCC9
:100C7000054641F2883700BF306F800708D5FFF77F
:100C8000ABFC401BB8424FF00300F5D9CAE600BFE9
:100C9000B8F1000F7FF497AE306C20F080503064D4
:100CA00091E600BFFFF798FC054600BF306880035F
:100CB0007FF565AEFFF790FC401B64284FF0030002
:100CC000F4D9AFE6411E0020B0EB116F1CBF01202C
:100CD00070474EF21002CEF2000251604EF62351E0
:100CE000CEF20001F0230B70072190601160704775
:100CF000002804BF0120704710B5044690F83D005D
:100D000028B9002084F83C00204600F021F8242077
:100D100084F83D002068C16821F40051C16020467C
:100D200000F064F92068016921F490410161416992
:100D300021F02A014161C16841F40051C1600020E5
:100D40002021206484F83D1084F83E1010BD00007E
:100D500080B586B0016841F20000C4F20100814212
:100D600002D006B080BD00BF002143F630020191E1
:100D7000C4F20202536900F5704043F0100353615E
:100D8000536903F010030193019B0191136843F031
:100D900001031360126802F001020192019A4FF4FC
:100DA000C06201920222CDE90221032104910721B0
:100DB000059101A9FFF72CFB06B080BDFEE70000FE
:100DC00010B540F20044C4F2020420460221002281
:100DD000FFF7FCFB0120FFF707FB20460221012261
:100DE000FFF7F4FB0220FFF7FFFA20460221002262
:100DF000BDE81040FFF7EABB2DE9F04F87B00027B0
:100E000043F6300006970197C4F2020001680024FF
:100E100041F0800101600168C4F2020401F0800128
:100E20000191019901970168002241F001010160DF
:100E3000016801F00101019101990197016841F0F8
:100E400004010160016801F0040101910199019719
:100E5000016841F0020101600068D02100F0020049
:100E6000019001982046FFF7B1FB20462021012286
:100E70004FF00109FFF7AAFB04F500663046302168
:100E800000224FF0300AFFF7A1FB04F580652846E9
:100E9000032100224FF0030BFFF798FBF0200DF128
:100EA0000808CDE9020920464146CDE90477FFF75D
:100EB000AFFA30464146CDE902A9CDE90477FFF704
:100EC000A7FA28464146CDE902B9CDE90477FFF7F4
:100ED0009FFA07B0BDE8F08F80B540F2780041F28C
:100EE0000001C2F20000C4F2010100234FF00C0C1B
:100EF0004FF4E13280E80E00C0E90333C0E905C3D6
:100F0000C361FFF7F5FE002808BF80BDBDE8804043
:100F1000FFF764BAFEE70000FEE70000704700003C
:100F200070470000FFF75EBBB0B592B0002443F6F7
:100F30004000CDE90A44CDE908440594CDE90344D5
:100F4000CDE901440094C4F202000168022541F099
:100F500080510160006800F080500090009847F2D6
:100F600000000094C4F20000016841F48041016077
:100F70000068A82100F480400090009801200690AD
:100F80004FF4803007904FF480000D9004200E90B5
:100F9000119006A80C95CDE90F15FFF7D7FC28B1E5
:100FA000EFF3108072B600BFFEE700BF0F20CDE95F
:100FB00001054FF4A05004904FF48050059001A813
:100FC00005210394FFF7B4FB20B1EFF3108072B654
:100FD000FEE700BF12B0B0BD4EF68850CEF2000062
:100FE000016841F4700101607047000010B50446CB
:100FF0000068D4E902C22369016921F44051114318
:101000000161626943EA0C01E3691143C268194353
:1010100049F20C639A431143C1604169A26921F40A
:10102000407141F20043114340F48062C4F2010375
:101030009A42416102D1FFF73FFC01E0FFF728FC33
:10104000E16963681922B1F5004FA0FB02011FD1CD
:101050005A00DB0FFFF708F948F21F51C5F2EB11F8
:10106000A0FB01235A096FF0630302FB0300322344
:1010700003EBC000A0FB01014FF4F87000EA11106F
:1010800000EB0210C1F3421108442168886010BDD2
:101090009A009B0FFFF7E8F848F21F51C5F2EB11D9
:1010A000A0FB01235A096FF0630302FB0300322304
:1010B00003EB0010A0FB0101F02000EA511000EB4F
:1010C0000210C1F3431108442168886010BD00007C
:1010D000FEE70000F0B581B00024C4F20204164619
:1010E0000D460746204620210022FFF76FFA2046D2
:1010F00010210022FFF76AFAFA0920468021FFF743
:1011000065FA0120FFF770F9204610210122FFF750
:101110005DFA204610210022FFF758FAC7F380122B
:1011200020468021FFF752FA0120FFF75DF92046A3
:1011300010210122FFF74AFA204610210022FFF772
:1011400045FAC7F3401220468021FFF73FFA0120FD
:10115000FFF74AF9204610210122FFF737FA20460F
:1011600010210022FFF732FAC7F300122046802137
:10117000FFF72CFA0120FFF737F920461021012252
:10118000FFF724FA204610210022FFF71FFAC7F3C9
:10119000C00220468021FFF719FA0120FFF724F949
:1011A000204610210122FFF711FA204610210022CB
:1011B000FFF70CFAC7F3800220468021FFF706FAFA
:1011C0000120FFF711F9204610210122FFF7FEF957
:1011D000204610210022FFF7F9F9C7F3400220460C
:1011E0008021FFF7F3F90120FFF7FEF820461021D8
:1011F0000122FFF7EBF9204610210022FFF7E6F964
:1012000007F0010220468021FFF7E0F90120FFF7F7
:10121000EBF8204610210122FFF7D8F920461021D3
:101220000022FFF7D3F9002D00F09E80013E00BFA1
:1012300016F8017F204610210022FFF7C7F9FA09AE
:1012400020468021FFF7C2F90120FFF7CDF82046A4
:1012500010210122FFF7BAF9204610210022FFF7E2
:10126000B5F9C7F3801220468021FFF7AFF90120BE
:10127000FFF7BAF8204610210122FFF7A7F9204610
:1012800010210022FFF7A2F9C7F340122046802167
:10129000FFF79CF90120FFF7A7F820461021012253
:1012A000FFF794F9204610210022FFF78FF9C7F3CA
:1012B000001220468021FFF789F90120FFF794F8FA
:1012C000204610210122FFF781F92046102100223B
:1012D000FFF77CF9C7F3C00220468021FFF776F9BB
:1012E0000120FFF781F8204610210122FFF76EF957
:1012F000204610210022FFF769F9C7F3800220463B
:101300008021FFF763F90120FFF76EF820461021D6
:101310000122FFF75BF9204610210022FFF756F962
:10132000C7F3400220468021FFF750F90120FFF764
:101330005BF8204610210122FFF748F920461021D2
:101340000022FFF743F907F0010220468021FFF752
:101350003DF90120FFF748F8204610210122FFF750
:1013600035F9013D7FF464AF204640210022FFF7AC
:101370002DF90120FFF738F8204640210122FFF720
:1013800025F90520FFF730F8204640210022FFF71D
:101390001DF920462021012201B0BDE8F040FFF7F1
:1013A00015B900000000000010B582B004460846E0
:1013B00000F06FF89FED100B53EC102B00F07CF851
:1013C00000F03AF801BA601EC0B20328019109D8B2
:1013D00041F2D061C0F6000151F820200020012127
:1013E000FFF778FE01AA04200421FFF773FE02B084
:1013F00010BD00BF00BF00BF95D626E80B2E2140D0
:10140000FFF7FEF8FFF790FDFFF7F6FCFFF764FD2E
:10141000FFF7D6FC40F20C02C2F2000201200321C9
:10142000FFF758FE44F24021C0F20F010120FFF700
:10143000BBFF00BFFEE700004FEA1153A3F5806336
:10144000D3F11E03A8BFD3F1200C08DB4FF00042FC
:1014500042EAC12252EA505232FA03F0704709427E
:101460000BD4102BC4BF0020704703F5787CBCF16F
:10147000FF3F05D04FF0FF3070474FF0000070473E
:1014800070B500F0C3F800BF499224800020704777
:10149000F0E7B0FA80F310FA03F10AD0C3F11D03AC
:1014A00003F580634FEA03524FEA415002EBD1212A
:1014B00070474FF00000704770B5DFF848C11CEA74
:1014C000111E1EBF1CEA13159EEA0C0F95EA0C0FA5
:1014D00000F06F8081EA03044EEAD47EAE4421EA34
:1014E0004C1123EA4C1341F4801143F48013AEF104
:1014F0007F7EA1FB024CA0FB0365361955EB0C0562
:10150000A1FB034C4CF10003A0FB021C16EB0C06E4
:10151000654153F10003094218BF46F0010613F478
:10152000007F0BD14FEA03314FEA053041EA1551F4
:1015300040EA165034036FF003020AE04FEAC32179
:101540004FEAC52041EA555140EA5650F4026FF087
:10155000020202EB2E4201EB025585EACE710AD05F
:101560005FEA440C18BF24F0004450F1000041F140
:10157000000120EAD47040F2FE7C624500D270BDCA
:10158000A84214BF4FF080444FF04044002E08BFE3
:101590000024BEF1806FA8BFA1F1C041BDE870403A
:1015A00080F2828001F1C04101F000414FF0000063
:1015B00070470CEA13159EEA0C0F18BF95EA0C0F42
:1015C00006D081EA030E4FF000000EF0004170BD1E
:1015D00000F01CF88900013E00F007B800F009B8DF
:1015E0004FEA430C5FEA5C5C08D081EA030100F03B
:1015F0005BB84FEA410C5FEA5C5CF6D102494FF000
:10160000000070470000FF070000F87F0EF1020E97
:101610002EF0030E5EF8046B364205D4012A43EB2C
:10162000030515F5001F12D8012841EB010C1CF52C
:10163000001F0CD80ED14FEAD17C0CEB4C0C0CF1F6
:10164000020C15F5001F08BF4CEBD37C04E04FF0F3
:10165000080C01E04FEAD37C0CEB4C0526FA05F6AA
:1016600006F00706B6F1040C06D20EEB860CBDE8B8
:1016700070404CF0010C6047DFE80CF0090B0202EF
:101680004FF00041A1F500214FF0000070BD194658
:101690001046012851EB010418BFD4F5001484BF93
:1016A000002001F0004170BD0808A0F500114FEACC
:1016B00031017047F1EE100A4FF6FF71C0F2C031F0
:1016C00020EA010040F04070E1EE100A704700008F
:1016D00008000020090000200A0000200B00002064
:1016E00000000000000000000102030406070809D2
:1016F0000000000001020304181700080000002089
:1017000018000000C401000830170008180000206D
:10171000A8060000E0010008010000001000000021
:1017200010204080D00000000024F40000000000E1
:040000050800018965
:00000001FF
